:10000000FAC000004BC3000074C300009DC3000091
:10001000C6C30000EFC3000018C4000041C40000C4
:100020006AC4000019C1000017C1000015C100001A
:1000300013C100000C94560A0FC100000DC100004E
:100040000BC100000C94250C07C1000005C1000085
:100050000C941F0B01C10000FFC0000077C400001A
:10006000FBC0000025C7000059C70000F5C0000014
:10007000F3C00000F1C00000EFC00000EDC00000C0
:100080000C94520CE9C00000E7C00000E5C000007D
:100090009BC70000CFC70000DFC00000DDC000002C
:1000A000DBC00000D9C000000C947F0CD5C000005C
:1000B000D3C00000D1C00000CFC000000C94AC0C35
:1000C000CBC00000C9C00000C7C000000C9470087D
:1000D0000C94A608C1C000000C94FC080C943209D2
:1000E000BBC0000000000A0B02090C0D0E0807033C
:1000F00004010000000000000000000000000000FB
:1001000000000000000000000000000000000000EF
:1001100012111000000000000000000000000000AC
:100120000000000000000000000001021020200874
:100130000810204010204080020102010804020142
:1001400001020408102040808040201008040201B1
:10015000800402018040201008040201080402010A
:100160000102040810204080010204081020408091
:1001700005050505070508080808020202020A0A23
:100180000808040404040101010101010101030341
:10019000030303030303040707070C0C0C0C0C0CEC
:1001A0000C0C0202020206060606060606060B0BE9
:1001B0000B0B0B0B0B0B00002200250028002B0063
:1001C0002E003100340002010000050108010B017E
:1001D00000002100240027002A002D0030003300F9
:1001E00001010000040107010A0102003F01B707F5
:1001F0004308CF085B0911241FBECFEFD1E2DEBF59
:10020000CDBF00E00CBF12E0A0E0B2E0E8E7FEE105
:1002100000E00BBF02C007900D92A633B107D9F7DB
:1002200025E0A6E3B2E001C01D92A43CB207E1F7CD
:1002300010E0CBEFD0E000E006C021970109802F4D
:10024000FE010E94190FC63FD10780E00807A9F7F9
:100250000E944B0E0C943A0FD3CE70E023E0829FA5
:10026000C00111248A5C9D4F0C949D0D70E023E029
:10027000829FC00111248A5C9D4F0C94D90D86E3A6
:1002800092E00C94D90C611101C07FC46130E9F394
:1002900062E0FBCF662311F061E0B3C460E0FDCF04
:1002A000AB01BC0186E492E00C94E109AB01BC0116
:1002B00083EE92E00C94E109AB01BC0180E893E08D
:1002C0000C94E109AB01BC018DE194E00C94E109CF
:1002D0008F929F92AF92BF92CF92DF92EF92FF9256
:1002E0000F931F93CF93DF93CDB7DEB77B014A0106
:1002F0005901CDB6DEB69B01220F331F4DB75EB755
:10030000421B530B0FB6F8945EBF0FBE4DBF0DB727
:100310001EB70F5F1F4FE82FF0E0EE0FFF1FE85FE3
:10032000FD4F0190F081E02DC8011995F801D4012D
:10033000E00EF11EEE15FF0519F081918D93FACFB5
:1003400081E0F50180830FB6F894DEBE0FBECDBE0E
:10035000DF91CF911F910F91FF90EF90DF90CF90A1
:10036000BF90AF909F908F9008959F92AF92BF9251
:10037000CF92DF92EF92FF920F931F93CF93DF9371
:10038000CDB7DEB7C054D1090FB6F894DEBF0FBEAB
:10039000CDBFB82E8B01942EA52E6901E82EF12C2D
:1003A000EE0CFF1CF701E050FE4F0190F081E02DB4
:1003B000199580179107C9F49601492D5A2DBC0152
:1003C0008B2D86DFC05CDF4F0FB6F894DEBF0FBE0B
:1003D000CDBFDF91CF911F910F91FF90EF90DF90F4
:1003E000CF90BF90AF909F9008958017910748F4E9
:1003F000E92DFA2D0E0F1F1FE017F10719F11192C9
:10040000FBCF9801220F331F2817390728F09601D8
:10041000492D5A2DB801D4CFB8010E94C70ECB0187
:100420000197809FB001819F700D909F700D1124E6
:10043000F701E85FFD4F0190F081E02DCE010196BC
:100440001995E5CFF6011082BDCF86E492E006C48F
:1004500083EE92E003C480E893E000C48DE194E071
:10046000FDC3CF92DF92EF92FF920F931F93CF9332
:10047000DF931F921F92CDB7DEB7C0903902D090A4
:100480003A02E0903B02F0903C02A7019601609195
:1004900061057091620580916305909164050E94E9
:1004A000840E882341F0C0926105D0926205E092EB
:1004B0006305F092640560916505709166059E0183
:1004C0002F5F3F4FAE014E5F5F4F81E04EDF809167
:1004D000BD05833018F48F5F8093BD058091BB0507
:1004E000811109C081E08093BB0583E08093BC0546
:1004F00060E001E02BC08091BC05823001F18330C7
:10050000A1F78A81803321F584E08093BC051092A5
:10051000BD0560E001E01EE689E0BCDE602F8AE0F8
:10052000B9DE612F80E0A2DE0F900F90DF91CF91B6
:100530001F910F91FF90EF90DF90CF90089581E091
:100540008093BC051092BD0561E000E017E8E4CFA0
:10055000813371F682E08093BC051092BD0561E0A5
:1005600000E0D9CFCF92DF92EF92FF921F93CF930B
:10057000DF931092C3051092C205CBE5D5E087E664
:10058000FE0111928A95E9F711E01093BE05809162
:10059000390290913A02A0913B02B0913C028E83C5
:1005A0009F83A887B987C12CD12C7601C394C982B7
:1005B000DA82EB82FC8281E090E09D878C879B87CA
:1005C0008A871D831093BF05C092B005D092B105F4
:1005D000E092B205F092B30561E089E054DE109339
:1005E000B4051092B5051093C005C092B605D0921F
:1005F000B705E092B805F092B90561E08AE043DE04
:100600001093BA051093C10522E32C8B93E39D8BC5
:1006100084E38E8B85E38F8B86E3888F87E3898FD6
:1006200088E38A8F89E38B8F81E38C8F30E33D8F62
:100630008E8F8F8F88A329A38AA39BA38FE695E033
:100640009B8B8A8BCE86DF86E88AF98A68E080E019
:1006500004DE1092BD051092BB051092BC05DF911F
:10066000CF911F91FF90EF90DF90CF9008958091F0
:100670005B05811103C081E080935B058091AF052C
:10068000811103C081E08093AF058091B505811190
:1006900003C081E08093B505089508951F920F92DD
:1006A0000FB60F9211240BB60F922F933F934F93D7
:1006B0005F936F937F938F939F93AF93BF93EF93CA
:1006C000FF93E0911402F09115021995FF91EF91BB
:1006D000BF91AF919F918F917F916F915F914F915A
:1006E0003F912F910F900BBE0F900FBE0F901F9058
:1006F00018951F920F920FB60F9211240BB60F92FE
:100700002F933F934F935F936F937F938F939F9319
:10071000AF93BF93EF93FF93E0911602F09117020E
:100720001995FF91EF91BF91AF919F918F917F911B
:100730006F915F914F913F912F910F900BBE0F9052
:100740000FBE0F901F9018951F920F920FB60F9229
:1007500011240BB60F922F933F934F935F936F9398
:100760007F938F939F93AF93BF93EF93FF93E0910A
:100770001802F09119021995FF91EF91BF91AF9175
:100780009F918F917F916F915F914F913F912F91A9
:100790000F900BBE0F900FBE0F901F9018951F92D9
:1007A0000F920FB60F9211240BB60F922F933F9317
:1007B0004F935F936F937F938F939F93AF93BF9369
:1007C000EF93FF93E0911A02F0911B021995FF91AC
:1007D000EF91BF91AF919F918F917F916F915F91B9
:1007E0004F913F912F910F900BBE0F900FBE0F9026
:1007F0001F9018951F920F920FB60F9211240BB6EF
:100800000F922F933F934F935F936F937F938F93A9
:100810009F93AF93BF93EF93FF93E0911002F091FA
:1008200011021995FF91EF91BF91AF919F918F9117
:100830007F916F915F914F913F912F910F900BBEE0
:100840000F900FBE0F901F9018951F920F920FB62A
:100850000F9211240BB60F922F933F934F935F93F8
:100860006F937F938F939F93AF93BF93EF93FF9378
:10087000E0911202F09113021995FF91EF91BF914F
:10088000AF919F918F917F916F915F914F913F9128
:100890002F910F900BBE0F900FBE0F901F901895C9
:1008A0001F920F920FB60F9211240BB60F922F9337
:1008B0003F934F935F936F937F938F939F93AF93E8
:1008C000BF93EF93FF93E0911C02F0911D021995E5
:1008D000FF91EF91BF91AF919F918F917F916F9118
:1008E0005F914F913F912F910F900BBE0F900FBED4
:1008F0000F901F9018951F920F920FB60F92112410
:100900000BB60F922F933F934F935F936F937F9309
:100910008F939F93AF93BF93EF93FF93E0911E024A
:10092000F0911F021995FF91EF91BF91AF919F91A7
:100930008F917F916F915F914F913F912F910F9088
:100940000BBE0F900FBE0F901F9018951F920F9225
:100950000FB60F9211242F933F938F939F93AF93D2
:10096000BF9380913E0290913F02A0914002B091CE
:10097000410230913D0223E0230F2D3758F50196B7
:10098000A11DB11D20933D0280933E0290933F0232
:10099000A0934002B09341028091420290914302A1
:1009A000A0914402B09145020196A11DB11D809312
:1009B000420290934302A0934402B0934502BF9138
:1009C000AF919F918F913F912F910F900FBE0F90FC
:1009D0001F90189526E8230F0296A11DB11DD2CFB6
:1009E0002FB7F89460913E0270913F0280914002CF
:1009F000909141022FBF0895789484B5826084BDA0
:100A000084B5816084BD85B5826085BD85B5816012
:100A100085BDEEE6F0E0808181608083E1E8F0E072
:100A20001082808182608083808181608083E0E8A1
:100A3000F0E0808181608083E1EBF0E08081846080
:100A40008083E0EBF0E0808181608083E1E9F0E089
:100A5000808182608083808181608083E0E9F0E032
:100A6000808181608083E1EAF0E080818260808320
:100A7000808181608083E0EAF0E080818160808312
:100A8000E1E2F1E080818260808380818160808307
:100A9000E0E2F1E0808181608083EAE7F0E080813C
:100AA0008460808380818260808380818160808394
:100AB0008081806880831092C100089581508231C6
:100AC00008F05AC0E82FF0E08827E659FA4F8F4F18
:100AD0000C94190F8A058E057C0582058605BC05D8
:100AE000910597059B05A105A505A905AF05B305CA
:100AF000BC05B705BD05C105809180008F77809347
:100B000080000895809180008F7DF9CF80918000D2
:100B1000877FF5CF84B58F7784BD089584B58F7DA9
:100B2000FBCF8091B0008F778093B00008958091C3
:100B3000B0008F7DF9CF809190008F7780939000E7
:100B40000895809190008F7DF9CF80919000877FEC
:100B5000F5CF8091A0008F778093A00008958091B9
:100B6000A0008F7DF9CF8091A000877FF5CF809185
:100B700020018F77809320010895809120018F7D3F
:100B8000F9CF80912001877FF5CFCF93DF9390E05D
:100B9000FC01E65DFE4F249180599E4FFC0184913B
:100BA0008823C9F090E0880F991FFC01E053FE4FA5
:100BB000A591B491FC01EA54FE4FC591D491611105
:100BC0000DC09FB7F8948C91209582238C938881D7
:100BD000282328839FBFDF91CF910895623051F47D
:100BE0009FB7F8943C91822F809583238C93E88162
:100BF0002E2BEFCF8FB7F894EC912E2B2C938FBF29
:100C0000EACF1F93CF93DF93282F30E0F901EC5107
:100C1000FF4F8491F901E65DFE4FD491F901E0594F
:100C2000FE4FC491CC23A1F0162F811147DFEC2F8A
:100C3000F0E0EE0FFF1FEA54FE4FA591B4918FB77D
:100C4000F894EC91111108C0D095DE23DC938FBF8E
:100C5000DF91CF911F910895DE2BF8CFFC01918D8C
:100C6000228D892F90E0805C9F4F821B91098F73AA
:100C700099270895FC01918D828D981731F0828D0E
:100C8000E80FF11D858D90E008958FEF9FEF089597
:100C9000FC01918D828D981761F0A28DAE0FBF2F50
:100CA000B11D5D968C91928D9F5F9F73928F90E0A6
:100CB00008958FEF9FEF0895FC01538D448D252FEC
:100CC00030E0842F90E0821B930B541710F0CF96E6
:100CD000089501970895FC01A48DA80FB92FB11DA7
:100CE000A35ABF4F2C91848D90E001968F73992762
:100CF000848FA689B7892C93A089B1898C91837040
:100D000080648C93938D848D981306C00288F38938
:100D1000E02D80818F7D80830895CF93DF93EC0158
:100D2000888D8823B1F0AA89BB89E889F9898C91DB
:100D300085FD03C0808186FD0CC00FB607FCF7CF90
:100D40008C9185FFF2CF808185FFEDCFCE01C3DF8F
:100D5000EACFDF91CF910895EF92FF920F931F9307
:100D6000CF93DF93EC0181E0888F9B8D8C8D98135E
:100D70001AC0E889F989808185FF15C09FB7F8946A
:100D8000EE89FF896083E889F989808183708064B6
:100D900080839FBF81E090E0DF91CF911F910F9101
:100DA000FF90EF900895F62E0B8D10E00F5F1F4F10
:100DB0000F731127E02E8C8D8E110BC00FB607FC20
:100DC000FACFE889F989808185FFF5CFCE0183DFED
:100DD000F2CFEB8DEC0FFD2FF11DE35AFF4FF082A8
:100DE0009FB7F8940B8FEA89FB8980818062D0CF0E
:100DF000CF92DF92EF92FF921F93CF93DF93EC019C
:100E00006A017B01122FE889F98982E08083C1148D
:100E100081EED806E104F10499F060E079E08DE319
:100E200090E0A7019601C7D7215031094109510926
:100E30005695479537952795211580E1380790F00D
:100E4000E889F989108260E874E88EE190E0A701F2
:100E50009601B1D72150310941095109569547955D
:100E600037952795EC85FD853083EE85FF852083BA
:100E7000188EEC89FD891083EA89FB898081806165
:100E80008083EA89FB89808188608083EA89FB8985
:100E9000808180688083EA89FB8980818F7D80835F
:100EA000DF91CF911F91FF90EF90DF90CF90089549
:100EB0001F920F920FB60F9211240BB60F922F9321
:100EC0008F939F93EF93FF93E0915602F091570217
:100ED0008081E0915C02F0915D0282FD1DC09081F5
:100EE00080915F028F5F8F7320916002821741F0C3
:100EF000E0915F02F0E0EA5BFD4F958F80935F0227
:100F0000FF91EF919F918F912F910F900BBE0F90BA
:100F10000FBE0F901F9018958081F2CF1F920F92F5
:100F20000FB60F9211240BB60F922F933F934F934E
:100F30005F936F937F938F939F93AF93BF93EF9341
:100F4000FF9386E492E0C7DEFF91EF91BF91AF91EE
:100F50009F918F917F916F915F914F913F912F91D1
:100F60000F900BBE0F900FBE0F901F901895E6E4E8
:100F7000F2E01382128288EE93E0A0E0B0E0848376
:100F80009583A683B78387E292E09183808385EC83
:100F900090E09587848784EC90E09787868780EC43
:100FA00090E0918B808B81EC90E0938B828B82EC34
:100FB00090E0958B848B86EC90E0978B868B118EDE
:100FC000128E138E148E08951F920F920FB60F92E9
:100FD00011240BB60F922F938F939F93EF93FF9350
:100FE000E091F302F091F4028081E091F902F09136
:100FF000FA0282FD1DC090818091FC028F5F8F7389
:101000002091FD02821741F0E091FC02F0E0ED51E9
:10101000FD4F958F8093FC02FF91EF919F918F91EF
:101020002F910F900BBE0F900FBE0F901F90189531
:101030008081F2CF1F920F920FB60F9211240BB640
:101040000F922F933F934F935F936F937F938F9361
:101050009F93AF93BF93EF93FF9383EE92E03BDEBA
:10106000FF91EF91BF91AF919F918F917F916F9180
:101070005F914F913F912F910F900BBE0F900FBE3C
:101080000F901F901895E3EEF2E01382128288EE23
:1010900093E0A0E0B0E084839583A683B78387E2E2
:1010A00092E0918380838DEC90E0958784878CEC2F
:1010B00090E09787868788EC90E0918B808B89EC15
:1010C00090E0938B828B8AEC90E0958B848B8EECF6
:1010D00090E0978B868B118E128E138E148E08954E
:1010E0001F920F920FB60F9211240BB60F922F93EF
:1010F0008F939F93EF93FF93E0919003F09191036F
:101100008081E0919603F091970382FD1DC090814C
:10111000809199038F5F8F7320919A03821741F01A
:10112000E0919903F0E0E058FC4F958F809399038C
:10113000FF91EF919F918F912F910F900BBE0F9088
:101140000FBE0F901F9018958081F2CF1F920F92C3
:101150000FB60F9211240BB60F922F933F934F931C
:101160005F936F937F938F939F93AF93BF93EF930F
:10117000FF9380E893E0AFDDFF91EF91BF91AF91D6
:101180009F918F917F916F915F914F913F912F919F
:101190000F900BBE0F900FBE0F901F901895E0E8B8
:1011A000F3E01382128288EE93E0A0E0B0E0848343
:1011B0009583A683B78387E292E09183808385ED50
:1011C00090E09587848784ED90E09787868780ED0F
:1011D00090E0918B808B81ED90E0938B828B82ED00
:1011E00090E0958B848B86ED90E0978B868B118EAB
:1011F000128E138E148E08951F920F920FB60F92B7
:1012000011240BB60F922F938F939F93EF93FF931D
:10121000E0912D04F0912E048081E0913304F0914F
:10122000340482FD1DC09081809136048F5F8F73DE
:1012300020913704821741F0E0913604F0E0E35E3C
:10124000FB4F958F80933604FF91EF919F918F9183
:101250002F910F900BBE0F900FBE0F901F901895FF
:101260008081F2CF1F920F920FB60F9211240BB60E
:101270000F922F933F934F935F936F937F938F932F
:101280009F93AF93BF93EF93FF938DE194E023DDA2
:10129000FF91EF91BF91AF919F918F917F916F914E
:1012A0005F914F913F912F910F900BBE0F900FBE0A
:1012B0000F901F901895EDE1F4E01382128288EEF2
:1012C00093E0A0E0B0E084839583A683B78387E2B0
:1012D00092E09183808385E391E09587848784E31E
:1012E00091E09787868780E391E0918B808B81E303
:1012F00091E0938B828B82E391E0958B848B86E3E4
:1013000091E0978B868B118E128E138E148E08951A
:10131000AF92BF92CF92DF92EF92FF920F931F9303
:10132000CF93DF936C017B018B01040F151FEB0141
:101330005E01AE18BF08C017D10759F06991D601F8
:10134000ED91FC910190F081E02DC6011995892B5A
:1013500079F7C501DF91CF911F910F91FF90EF9029
:10136000DF90CF90BF90AF9008950F931F93CF93CE
:10137000DF93EC0135DB688779878A879B87E88173
:10138000F9810284F385E02DCE01199597FF14C0F1
:1013900027DB088519852A853B85601B710B820B2D
:1013A000930B0C811D812E813F816017710782078D
:1013B000930728F38FEF9FEFDF91CF911F910F914C
:1013C0000895AF92BF92CF92DF92EF92FF920F9368
:1013D0001F93CF93DF935C017B018B01040F151FDB
:1013E000EB016E01CE18DF08C017D10731F0C5013F
:1013F000BCDF97FD02C08993F4CFC601DF91CF9186
:101400001F910F91FF90EF90DF90CF90BF90AF9022
:1014100008958230A9F028F4882349F0813051F0F2
:101420000895843021F1E8F0853039F10895109263
:101430006E00089580916F008D7F80936F000895F6
:10144000809170008D7F8093700081E08093B00068
:101450008091B100887F84608093B1001092B300C6
:101460000895809171008D7F80937100089580911F
:1014700072008D7F809372000895809173008D7F3C
:10148000809373000895CF93C82F80912002C813D2
:101490000BC0EAEEF1E084919FEF90932002B9DF58
:1014A00060E08C2FCF91ADCB8FEFF9CF1F920F92D1
:1014B0000FB60F9211240BB60F922F933F934F93B9
:1014C0005F936F937F938F939F93AF93BF93EF93AC
:1014D000FF938091BD049091BE04A091BF04B09190
:1014E000C004892B8A2B8B2BE1F19091BA04E091F7
:1014F000BB04F091BC048081892780838091BD0466
:101500009091BE04A091BF04B091C00418161906B2
:101510001A061B069CF48091BD049091BE04A09114
:10152000BF04B091C0040197A109B1098093BD0423
:101530009093BE04A093BF04B093C004FF91EF91B9
:10154000BF91AF919F918F917F916F915F914F91DB
:101550003F912F910F900BBE0F900FBE0F901F90D9
:101560001895809120028FDFE9CF4F925F926F92A2
:101570007F92AF92BF92CF92DF92EF92FF920F9342
:101580001F93CF93DF93CDB7DEB729013A019B01BB
:10159000AC0124193509460957098A899B89AC8908
:1015A000BD89BC01CD016A197B098C099D09D4D381
:1015B000A801970124193509460957091ED4CA0103
:1015C000B9016A0D7B1D8C1D9D1DDF91CF911F916F
:1015D0000F91FF90EF90DF90CF90BF90AF907F90F2
:1015E0006F905F904F90089540E855E260E070E0A2
:1015F00090E080E007D040E855E260E070E081E0F4
:1016000090E000C08130910571F01CF4892B39F015
:1016100008958230910559F0039769F0089526E006
:1016200086E492E0E5CB26E083EE92E0FBCF26E075
:1016300080E893E0F7CF26E08DE194E0F3CF1F92AE
:101640000F920FB60F9211240BB60F922F933F9368
:101650004F935F936F937F938F939F93AF93BF93BA
:10166000EF93FF9386E997EE909385008093840033
:10167000F9D2FF91EF91BF91AF919F918F917F919F
:101680006F915F914F913F912F910F900BBE0F90F3
:101690000FBE0F901F90189586E997EE90938500E6
:1016A00080938400AFE6B0E08C918E7F8C93E0E86D
:1016B000F0E080818C7F8083E1E8F0E08081877EAC
:1016C000808380818460808380818C7F80838C9103
:1016D00081608C93089581E00895CF92DF92EF921C
:1016E000FF920F931F93CF93DF936B017A01EC016D
:1016F000CE53DB4F28813CE0389F8001399F100D8D
:10170000112427FF24C0FB011182108288818F5F82
:10171000888388819801280F311D87FD3A95C9017A
:101720002091C104F6012817190629F024F08881B8
:101730008C300CF43BC080819181049680349C49AC
:1017400008F473C0F60180819181049670C088818D
:101750009801280F311D87FD3A95C9012091C104D8
:101760002817190699F294F28881A801480F511D93
:1017700087FD5A95FA01EE0FFF1FE40FF51FEA539C
:10178000FB4F808186FFC2CF8881F801E80FF11DF1
:1017900087FDFA95CF01EE0FFF1FE80FF91FEA53FF
:1017A000FB4F808160E08F732CDAB0CF8081918114
:1017B0002881A801420F511D27FD5A959A01FA016F
:1017C000EE0FFF1FE20FF31FEA53FB4F218132811F
:1017D000820F931FF7019183808388819801280FDE
:1017E000311D87FD3A95F901EE0FFF1FE20FF31F40
:1017F000EA53FB4F808186FF1FC08881080F111DAF
:1018000087FD1A95F801EE0FFF1FE00FF11FEA5355
:10181000FB4F808161E08F73DF91CF911F910F911A
:10182000FF90EF90DF90CF90ECC980E49CE9F70146
:10183000918380838FEF8883DF91CF911F910F91E8
:10184000FF90EF90DF90CF9008951F920F920FB608
:101850000F9211240BB60F922F933F934F935F93E8
:101860006F937F938F939F93AF93BF93EF93FF9368
:1018700048E850E064E870E081E090E02EDFFF91FE
:10188000EF91BF91AF919F918F917F916F915F91F8
:101890004F913F912F910F900BBE0F900FBE0F9065
:1018A0001F9018951F920F920FB60F9211240BB62E
:1018B0000F922F933F934F935F936F937F938F93E9
:1018C0009F93AF93BF93EF93FF9348E950E064E990
:1018D00070E082E090E001DFFF91EF91BF91AF9166
:1018E0009F918F917F916F915F914F913F912F9138
:1018F0000F900BBE0F900FBE0F901F9018951F9268
:101900000F920FB60F9211240BB60F922F933F93A5
:101910004F935F936F937F938F939F93AF93BF93F7
:10192000EF93FF9348EA50E064EA70E083E090E0D0
:10193000D4DEFF91EF91BF91AF919F918F917F91F5
:101940006F915F914F913F912F910F900BBE0F9030
:101950000FBE0F901F9018951F920F920FB60F9207
:1019600011240BB60F922F933F934F935F936F9376
:101970007F938F939F93AF93BF93EF93FF9348E22F
:1019800051E064E271E090E080E0A7DEFF91EF912A
:10199000BF91AF919F918F917F916F915F914F9187
:1019A0003F912F910F900BBE0F900FBE0F901F9085
:1019B0001895FC019091C104903398F481E0890F4F
:1019C0008093C1049083892F90E0FC01EE0FFF1FEC
:1019D000E80FF91FEA53FB4F88EB9BE0928381836A
:1019E00008958FEF80830895DF92EF92FF920F9317
:1019F0001F93CF93DF93EC01D62E7A018901888162
:101A0000803308F065C061E08D2DBFD88881282F14
:101A100030E0F901EE0FFF1FE20FF31FEA53FB4F17
:101A20009D2D9F736081607C692B608320E232E092
:101A30002E193F0937FF02C02D5F3F4F359527957F
:101A400035952795298320E639E0201B310B37FF98
:101A500002C02D5F3F4F35952795359527952A83F1
:101A60002CE0622F88D1829FB001112430E020E069
:101A7000AB01420F531FFA01EE0FFF1FE40FF51FDA
:101A8000EA53FB4F908196FD16C02F5F3F4F2C30DD
:101A9000310571F7813029F51092800082E0809342
:101AA00081001092850010928400B19A80916F009D
:101AB000826080936F00E8818E2F90E0FC01EE0F32
:101AC000FF1FE80FF91FEA53FB4F8081806480837A
:101AD0008881DF91CF911F910F91FF90EF90DF9060
:101AE0000895823061F410929000809391001092DA
:101AF00095001092940088BB80937100DCCF8330F6
:101B000069F41092A00082E08093A1001092A500D9
:101B10001092A40089BB80937200CDCF8111CBCFEE
:101B20001092200182E080932101109225011092F1
:101B300024018ABB80937300BECF20E639E040E2E7
:101B400052E052CFDC01EC91E03390F511968C918C
:101B5000119728E830E0281B310987FD3395220FC3
:101B6000331F220F331F6217730784F012968C9174
:101B700028E532E0281B310987FD3395220F331FFA
:101B8000220F331F621773070CF49B012250310997
:101B9000220F331F4FB7F8948E2F90E0FC01EE0F09
:101BA000FF1FE80FF91FEA53FB4F328321834FBF1A
:101BB0000895AF92BF92CF92DF92EF92FF920F9370
:101BC0001F93CF93DF93EC01603282E078070CF033
:101BD0003DC0653B710514F064EB70E0898148E815
:101BE000A42EB12CA81AB10887FDB394AA0CBB1C73
:101BF000AA0CBB1C0B2C000CCC08DD0877FF02C024
:101C000070E060E0072E000C880B990B2A8108E534
:101C100012E0021B110927FD1395000F111F000F81
:101C2000111F012E000C220B330B3F932F931F9398
:101C30000F9314EBE12EF12C00E010E020E030E0F7
:101C4000A90193DC0F900F900F900F90CE01DF91C0
:101C5000CF911F910F91FF90EF90DF90CF90BF90A9
:101C6000AF9070CF8091580591E0980F90935805F0
:101C7000882349F021E030E030935A05209359053C
:101C800080935805089578940E943102F8948091C9
:101C900058058150F5CFCF93DF93109257051092DE
:101CA00056050E94FC04A0DCC0912102D0912202C2
:101CB000198218820E94B202EFDC81E0288139810A
:101CC000232B09F080E080935605789478948091D6
:101CD0005605811108C00E943703F89490E080E017
:101CE000DF91CF91089581E028813981232B09F478
:101CF00080E0809357059091570581E0911180E035
:101D000080935605E8DCE3CF03D008F481E0089522
:101D1000990F0008550FAA0BE0E8FEEF16161706FC
:101D2000E807F907C0F012161306E407F50798F064
:101D3000621B730B840B950B39F40A2661F0232B7D
:101D4000242B252B21F408950A2609F4A140A695F9
:101D50008FEF811D811D0895DB018F939F9371D0BB
:101D6000BF91AF91A29F800D911DA39F900DB29F37
:101D7000900D11240895991B79E004C0991F9617BE
:101D800008F0961B881F7A95C9F780950895AA1BBD
:101D9000BB1B51E107C0AA1FBB1FA617B70710F056
:101DA000A61BB70B881F991F5A95A9F78095909588
:101DB000BC01CD010895A1E21A2EAA1BBB1BFD0197
:101DC0000DC0AA1FBB1FEE1FFF1FA217B307E4071A
:101DD000F50720F0A21BB30BE40BF50B661F771F72
:101DE000881F991F1A9469F7609570958095909552
:101DF0009B01AC01BD01CF010895052E97FB16F4A0
:101E000000940FD057FD05D0D6DF07FC02D046F472
:101E100008C050954095309521953F4F4F4F5F4FEB
:101E2000089590958095709561957F4F8F4F9F4F46
:101E30000895EE0FFF1F881F8BBF0790F691E02DCE
:101E4000199409D0A59F900DB49F900DA49F800D6B
:101E5000911D11240895A29FB001B39FC001A39FBB
:101E6000700D811D1124911DB29F700D811D1124D3
:081E7000911D0895F894FFCFC5
:101E7800250228022B022E02500156015C01620144
:101E88004D034D034D034D034D034D034D034D03CA
:101E9800FFC20500000000AC0688095C068D062E0E
:061EA8000648063A0600A0
:00000001FF
